S0120000444132435F5461736B312E73726563F5
S11300000C9434000C943E000C943E000C943E007E
S11300100C943E000C943E000C943E000C943E0064
S11300200C943E000C943E000C943E000C943E0054
S11300300C943E000C943E000C943E000C943E0044
S11300400C943E000C943E000C943E000C943E0034
S11300500C943E000C943E000C943E000C943E0024
S11300600C943E000C943E0011241FBECFEFD8E048
S1130070DEBFCDBF0E9440000C9459000C940000D8
S1130080229A14BC85B5856085BD91E028E332E7EA
S113009083E22A9826BDA89BFECF95BB8150C9F761
S11300A082E22A9A36BDA89BFECF95BB8150C9F740
S10900B0EFCFF894FFCF2E
S9030000FC
