:100000000C9434000C9446000C9446000C9446006A
:100010000C9446000C9446000C9446000C94460048
:100020000C9446000C9446000C9446000C94460038
:100030000C9446000C9446000C9469000C94460005
:100040000C9446000C9446000C9446000C94460018
:100050000C9446000C9446000C9446000C94460008
:100060000C9446000C94460011241FBECFEFD8E03C
:10007000DEBFCDBF21E0A0E0B1E001C01D92A33002
:10008000B207E1F70E9448000C949A000C9400001B
:10009000229A87B117B8419A84B5826084BD85B52C
:1000A000856085BD2A9A8AEB87BD10920001109267
:1000B00001011092020182E080936E00789416BCD8
:1000C0003199FECF809100018F5F8093000116BCB3
:1000D000F7CF1F920F920FB60F9211248F9380913A
:1000E0000001882301F180910201811113C02A9837
:1000F00080910101893639F4109201018091020149
:100100008F5F80930201809101018F5F80930101D5
:1001100016BC0AC02A9A8091020181508093020184
:100120001092000101C016BC8F910F900FBE0F906E
:080130001F901895F894FFCF11
:00000001FF
