S01100004D69647465726D20492E73726563D8
S11300000C9434000C9451000C9451000C94510045
S11300100C9451000C9451000C9451000C94510018
S11300200C9451000C9451000C9451000C94510008
S11300300C9451000C9451000C9451000C945100F8
S11300400C9451000C9451000C9451000C945100E8
S11300500C9451000C9451000C9451000C945100D8
S11300600C9451000C94510011241FBECFEFD8E022
S1130070DEBFCDBF11E0A0E0B1E0E8E3FCE002C0E8
S113008005900D92A63DB107D9F721E0A6EDB1E0A8
S113009001C01D92A73DB207E1F70E947B000C94BA
S11300A01A060C94000088E18093C10086E08093D6
S11300B0C20088E08093C400089580E480937C00AB
S11300C085E880937A000895E0ECF0E0908195FF54
S11300D0FDCF8093C6000895CF93DF93EC01888110
S11300E0882331F021960E94640089918111FBCF0D
S11300F0DF91CF910895CF93DF93CDB7DEB7C1528F
S1130100D1400FB6F894DEBF0FBECDBF0E9453009E
S11301100E945D000AE710E00F2EF8E78F2E912C65
S1130120F02D0F2EF9E7AF2EB12CF02D0F2EF0E0AD
S1130130CF2EF1E0DF2EF02D9E012F5F3F4F79018E
S1130140F801808180648083F801808184FFFCCF82
S1130150808180618083F40180818093D601F501E0
S113016080818091D6018093D6016091D60170E0A0
S113017080E090E00E94290220E030E040E85AE369
S11301800E94B50220E030E44CE955E40E94B50237
S113019020E030E040E251E40E9486010E94F80130
S11301A06093D6018091D6018C5C8093D6018EE059
S11301B0EBE4F1E0DE01AC5EBE4F01900D928A9556
S11301C0E1F7CE018C5E9E4F0E946C00FFEF23EDA1
S11301D030E3F15020403040E1F700C0000085E2F8
S11301E0E9E5F1E0DE01AD53BF4F01900D928A9530
S11301F0E1F7CE018D539F4F0E946C008FEF93ED7A
S1130200E0E381509040E040E1F700C000008EE060
S1130210EEE7F1E0DE01AA5FBE4F01900D928A95F0
S1130220E1F7CE018A5F9E4F0E946C00FFEF23ED41
S113023030E3F15020403040E1F700C000008CE290
S1130240ECE8F1E0DE01A956BF4F01900D928A95CA
S1130250E1F7CE0189569F4F0E946C008FEF93ED1A
S1130260E0E381509040E040E1F700C0000080E10D
S1130270E8EBF1E0DE01A851BF4F01900D928A95A1
S1130280E1F7CE0188519F4F0E946C00FFEF23EDF0
S113029030E3F15020403040E1F700C0000080918D
S11302A0D6011F928F93DF92CF92FF92EF920E941A
S11302B02203C7010E946C008FEF93EDE0E38150AD
S11302C09040E040E1F700C000008EE0E8ECF1E08F
S11302D0DE01A850BF4F01900D928A95E1F7CE013F
S11302E088509F4F0E946C00FFEF29E532E682E0C0
S11302F0F150204030408040D9F700C000000F90FA
S11303000F900F900F900F900F901ACF0E949A01A8
S11303100C947B020E94740258F00E946D0240F01B
S113032029F45F3F29F00C94640251110C94AF023C
S11303300C946A020E948C0268F39923B1F355234A
S113034091F3951B550BBB27AA27621773078407E4
S113035038F09F5F5F4F220F331F441FAA1FA9F37A
S113036035D00E2E3AF0E0E832D091505040E69568
S1130370001CCAF72BD0FE2F29D0660F771F881FC9
S1130380BB1F261737074807AB07B0E809F0BB0BBC
S1130390802DBF01FF2793585F4F3AF09E3F5105D0
S11303A078F00C9464020C94AF025F3FE4F3983E3F
S11303B0D4F3869577956795B795F7959F5FC9F7B9
S11303C0880F911D9695879597F90895E1E0660F3A
S11303D0771F881FBB1F621773078407BA0720F0B3
S11303E0621B730B840BBA0BEE1F88F7E09508951C
S11303F00E94940288F09F5798F0B92F9927B7511B
S1130400B0F0E1F0660F771F881F991F1AF0BA95B4
S1130410C9F714C0B13091F00E94AE02B1E0089562
S11304200C94AE02672F782F8827B85F39F0B93F54
S1130430CCF3869577956795B395D9F73EF4909567
S11304408095709561957F4F8F4F9F4F0895E894E5
S113045009C097FB3EF490958095709561957F4F08
S11304608F4F9F4F9923A9F0F92F96E9BB279395B6
S1130470F695879577956795B795F111F8CFFAF4C6
S1130480BB0F11F460FF1BC06F5F7F4F8F4F9F4FF7
S113049016C0882311F096E911C0772321F09EE855
S11304A0872F762F05C0662371F096E8862F70E0BB
S11304B060E02AF09A95660F771F881FDAF7880F95
S11304C09695879597F9089597F99F6780E870E066
S11304D060E008959FEF80EC089500240A941616B6
S11304E0170618060906089500240A94121613061E
S11304F0140605060895092E0394000C11F48823AC
S113050052F0BB0F40F4BF2B11F460FF04C06F5FC7
S11305107F4F8F4F9F4F089557FD9058440F551F9D
S113052059F05F3F71F04795880F97FB991F61F071
S11305309F3F79F087950895121613061406551FE8
S1130540F2CF4695F1DF08C0161617061806991F54
S1130550F1CF86957105610508940895E894BB2749
S113056066277727CB0197F908950E94C8020C9457
S11305707B020E946D0238F00E94740220F09523E1
S113058011F00C9464020C946A0211240C94AF02CE
S11305900E948C0270F3959FC1F3950F50E0551F94
S11305A0629FF001729FBB27F00DB11D639FAA27C4
S11305B0F00DB11DAA1F649F6627B00DA11D661F13
S11305C0829F2227B00DA11D621F739FB00DA11D34
S11305D0621F839FA00D611D221F749F3327A00DEE
S11305E0611D231F849F600D211D822F762F6A2F8A
S11305F011249F5750409AF0F1F088234AF0EE0FEF
S1130600FF1FBB1F661F771F881F91505040A9F71B
S11306109E3F510580F00C9464020C94AF025F3F3E
S1130620E4F3983ED4F3869577956795B795F79557
S1130630E7959F5FC1F7FE2B880F911D96958795CF
S113064097F90895AEE0B0E0E8E2F3E00C94F10528
S11306500D891E898F89988D26E02C831A8309833E
S113066097FF02C080E090E801979E838D83AE01DE
S1130670455E5F4F698D7A8DCE0101960E945203CB
S11306804D815E8157FD0AC02F813885421753077B
S11306900CF49A01F801E20FF31F10822E96E4E0A5
S11306A00C940D06ABE0B0E0E8E5F3E00C94E30550
S11306B06C017B018A01FC0117821682838181FF10
S11306C0CCC1CE0101963C01F6019381F70193FD63
S11306D0859193FF81917F01882309F4BAC1853202
S11306E039F493FD859193FF81917F01853229F43B
S11306F0B60190E00E944905E7CF912C212C312CC2
S1130700FFE1F315D8F08B3279F038F4803279F0C8
S11307108332A1F4232D20611DC08D3261F080331A
S113072069F4232D216016C0832D8260382EE32DB9
S1130730E4603E2E2AC0F32DF8601DC037FC2DC0A6
S113074020ED280F2A3040F08E32B9F436FC81C1F6
S1130750232D2064322E19C036FE06C08AE0989EEE
S1130760200D1124922E11C0EAE02E9E200D11249A
S1130770222EF32DF0623F2E08C08C3621F4832DF7
S11307808068382E02C0883641F4F70193FD8591C4
S113079093FF81917F018111B3CF982F9F7D955451
S11307A0933028F40C5F1F4F9FE399830DC0833669
S11307B031F0833771F0833509F059C021C0F80155
S11307C0808189830E5F1F4F88248394912C530169
S11307D013C02801F2E04F0E511CF801A080B18033
S11307E036FE03C0692D70E002C06FEF7FEFC501D4
S11307F00E943E054C018201F32DFF773F2E16C067
S1130800280122E0420E511CF801A080B18036FE7E
S113081003C0692D70E002C06FEF7FEFC5010E9435
S113082033054C01F32DF0683F2E820133FC1BC0CD
S1130830822D90E088169906B0F4B60180E290E02B
S11308400E9449052A94F4CFF50137FC859137FEBF
S113085081915F01B60190E00E94490521102A941C
S113086021E0821A91088114910471F7E8C084365A
S113087011F0893641F5F80137FE07C060817181B6
S1130880828193810C5F1F4F08C060817181072EA4
S1130890000C880B990B0E5F1F4FF32DFF763F2E34
S11308A097FF09C090958095709561957F4F8F4F04
S11308B09F4FF0683F2E2AE030E0A3010E94850597
S11308C0882E861845C0853731F4232D2F7EB22E0D
S11308D02AE030E025C0932D997FB92E8F36C1F0E0
S11308E018F4883579F0B5C0803719F0883721F0CD
S11308F0B0C0E92FE061BE2EB4FE0DC0FB2DF46044
S1130900BF2E09C034FE0AC0292F2660B22E06C0AD
S113091028E030E005C020E130E002C020E132E010
S1130920F801B7FE07C060817181828193810C5FF9
S11309301F4F06C06081718180E090E00E5F1F4F01
S1130940A3010E948505882E8618FB2DFF773F2E74
S113095036FE0DC0232D2E7FA22E891458F434FEAA
S11309600BC032FC09C0832D8E7EA82E05C0B82C86
S1130970A32C03C0B82C01C0B92CA4FE0FC0FE01E7
S1130980E80DF11D8081803321F49A2D997EA92EE2
S113099009C0A2FE06C0B394B39404C08A2D86781D
S11309A009F0B394A3FC11C0A0FE06C0B21488F4ED
S11309B0280C922C9B180EC0B21460F4B60180E28D
S11309C090E00E944905B394F7CFB21418F42B18A1
S11309D002C0982C212CA4FE10C0B60180E390E044
S11309E00E944905A2FE17C0A1FC03C088E790E05D
S11309F002C088E590E0B6010CC08A2D867859F0D3
S1130A00A1FE02C08BE201C080E2A7FC8DE2B60128
S1130A1090E00E944905891438F4B60180E390E01F
S1130A200E9449059A94F7CF8A94F301E80DF11DC9
S1130A308081B60190E00E9449058110F5CF222003
S1130A4009F442CEB60180E290E00E9449052A945E
S1130A50F6CFF6018681978102C08FEF9FEF2B9628
S1130A60E2E10C94FF05FC01059061507040011017
S1130A70D8F7809590958E0F9F1F0895FC016150C3
S1130A80704001900110D8F7809590958E0F9F1FAC
S1130A9008950F931F93CF93DF93FB01238121FDCF
S1130AA003C08FEF9FEF2CC022FF16C046815781F1
S1130AB0248135814217530744F4A081B1819D01FB
S1130AC02F5F3F4F318320838C93268137812F5FA3
S1130AD03F4F3783268314C08B01EC01FB01008454
S1130AE0F185E02D0995892BE1F6D80116968D91B3
S1130AF09C911797019617969C938E931697CE0107
S1130B00DF91CF911F910F910895FA01AA27283000
S1130B1051F1203181F1E8946F936E7F6E5F7F4FC6
S1130B208F4F9F4FAF4FB1E03ED0B4E03CD0670F42
S1130B30781F891F9A1FA11D680F791F8A1F911D95
S1130B40A11D6A0F711D811D911DA11D20D009F4E5
S1130B5068943F912AE0269F11243019305D319327
S1130B60DEF6CF010895462F4770405D4193B3E010
S1130B700FD0C9F7F6CF462F4F70405D4A3318F0B7
S1130B80495D31FD4052419302D0A9F7EACFB4E068
S1130B90A6959795879577956795BA95C9F7009720
S1130BA06105710508959B01AC010A2E06945795C1
S1130BB0479537952795BA95C9F7620F731F841F18
S1130BC0951FA01D08952F923F924F925F926F92AE
S1130BD07F928F929F92AF92BF92CF92DF92EF92C9
S1130BE0FF920F931F93CF93DF93CDB7DEB7CA1B4A
S1130BF0DB0B0FB6F894DEBF0FBECDBF09942A8875
S1130C00398848885F846E847D848C849B84AA841C
S1130C10B984C884DF80EE80FD800C811B81AA81A9
S1130C20B981CE0FD11D0FB6F894DEBF0FBECDBF74
S10B0C30ED010895F894FFCFD3
S1130C384745542068747470733A2F2F6170692E75
S1130C487468696E67737065616B2E636F6D2F7559
S1130C5870646174653F6170695F6B65793D475382
S1130C68503637484D36384F50485955513926660D
S1130C7869656C64313D25640D0A0041542B435762
S1130C884D4F44453D310D0A0041542B43574A41C9
S1130C98503D224A6F686E206950686F6E65222C39
S1130CA822576861746E6F776179220D0A00415486
S1130CB82B4349504D55583D300D0A0041542B43A0
S1130CC8495053544152543D22544350222C2261DA
S1130CD870692E7468696E67737065616B2E636FD3
S1130CE86D222C38300D0A0041542B43495053458A
S1130CF84E443D38300D0A0041542B434950434C6F
S1090D084F53450D0A00E3
S9030000FC
