:100000000C9434000C9451000C9451000C94510049
:100010000C94E0000C9451000C9451000C9451008D
:100020000C9451000C9451000C9451000C9451000C
:100030000C9451000C9451000C9451000C945100FC
:100040000C9451000C9451000C9451000C945100EC
:100050000C9451000C9451000C9451000C945100DC
:100060000C9451000C94510011241FBECFEFD8E026
:10007000DEBFCDBF11E0A0E0B1E0E0ECF2E002C0F5
:1000800005900D92A830B107D9F721E0A8E0B1E0C2
:1000900001C01D92A930B207E1F70E947C000C94C8
:1000A0005E010C94000080E480937C0085E88093DE
:1000B0007A0008951092C50087E68093C40086E018
:1000C0008093C20088E18093C1000895CF93DF93AD
:1000D000FC012081222369F0DC011196E0ECF0E0C4
:1000E000C6ECD0E0908195FFFDCF28832D912111A2
:1000F000F9CFDF91CF910895CF93DF93CDB7DEB7DE
:1001000064970FB6F894DEBF0FBECDBF8FEF84B9F2
:10011000559A5F9A84B5836A84BD85B5826085BD32
:10012000ECE6F0E0808182608083E8E6F0E08081A8
:100130008260808378940E945A000E94530016BC0B
:100140000AE710E00F2EF8E7EF2EF12CF02D0F2E1E
:10015000F2EFDF2EF02DF801808180648083F801BA
:10016000808184FFFCCF808180618083F701808162
:1001700091818093080180910801833F10F0D8BCE1
:1001800003C08091080188BD809108014AE050E0D9
:10019000BE016F5F7F4F90E00E941E01CE0101966D
:1001A0000E94660080E091E00E946600FFEF23ED70
:1001B00080E3F15020408040E1F700C00000CBCF49
:1001C0001F920F920FB60F9211242F933F934F93CC
:1001D0005F936F937F938F939F93AF93BF93CF93CF
:1001E000DF93EF93FF93C8E6D0E0888188832FEFF9
:1001F00081EE94E0215080409040E1F700C0000083
:1002000082E091E00E94660095B181E0892785B97E
:10021000888182608883FF91EF91DF91CF91BF91B8
:10022000AF919F918F917F916F915F914F913F918E
:100230002F910F900FBE0F901F90189545325105CA
:1002400020F4423010F00C942901FB011082CB0104
:100250000895BB274A3031F4992322F4BDE29095EA
:1002600081959F4F0C943501BB27FB015527AA2789
:10027000880F991FAA1FA41710F0A41B8395505133
:10028000B9F7A05DAA3308F0A95DA193009779F7AB
:10029000B111B1931192CB010C944E01DC01FC0120
:1002A000672F71917723E1F7329704C07C916D93AA
:1002B00070836291AE17BF07C8F30895F894FFCF1B
:0802C0000A0048656C6C6F0038
:00000001FF
