S0130000444132435F5461736B32422E73726563B1
S11300000C9434000C9446000C9446000C94460066
S11300100C9446000C9446000C9446000C94460044
S11300200C9446000C9446000C9446000C94460034
S11300300C9446000C9446000C9446000C94460024
S11300400C9467000C9446000C9446000C944600F3
S11300500C9446000C9446000C9446000C94460004
S11300600C9446000C94460011241FBECFEFD8E038
S1130070DEBFCDBF21E0A0E0B1E001C01D92A330FE
S1130080B207E1F70E9448000C949A000C94000017
S1130090229A87B117B8419A14BC85B5856085BD8D
S11300A02A9A109200011092010110920201EEE6C8
S11300B0F0E0808181608083789496E43199FECF6A
S11300C096BD809100018F5F80930001F7CF1F924E
S11300D00F920FB60F9211248F9380910001882301
S11300E009F180910201811114C02A9880910101C3
S11300F0893639F410920101809102018F5F809357
S11301000201809101018F5F8093010186E486BD25
S11301100BC02A9A809102018150809302011092AF
S1130120000102C086E486BD8F910F900FBE0F9030
S10B01301F901895F894FFCF0D
S9030000FC
