S00C0000444133422E737265631E
S11300000C9434000C9451000C9451000C94510045
S11300100C9451000C9451000C9451000C94510018
S11300200C9451000C9451000C9451000C946C00ED
S11300300C9451000C9451000C9451000C945100F8
S11300400C9451000C9451000C9451000C945100E8
S11300500C9451000C9451000C9451000C945100D8
S11300600C9451000C94510011241FBECFEFD8E022
S1130070DEBFCDBF11E0A0E0B1E0E8EBF5E002C0E7
S113008005900D92AE30B107D9F721E0AEE0B1E0B2
S113009001C01D92A131B207E1F70E94E2000C9465
S11300A0DA020C94000088E08093C10086E080931B
S11300B0C20087E68093C400089585E480937C00A1
S11300C085E880937A000895E0ECF0E0908195FF54
S11300D0FDCF8093C60008951F920F920FB60F9222
S11300E011242F933F934F935F936F937F938F9339
S11300F09F93AF93BF93CF93EF93FF93809110019E
S1130100C9E28C9F812D112482958F70805D0E949D
S11301106400909110019C9F812D112482958F7011
S113012024E6829F9019112490931001809110016C
S1130130CDEC8C9F812D1124869586958695805DC6
S11301400E946400209110012C9F812D112486951A
S113015086958695880F982F990F990F890F281BDC
S11301602093100180911001805D0E9464008DE055
S11301700E946400FF91EF91CF91BF91AF919F9145
S11301808F917F916F915F914F913F912F910F903C
S11301900FBE0F901F901895CF93DF93FC01208121
S11301A0222369F0DC011196E0ECF0E0C6ECD0E02B
S11301B0908195FFFDCF28832D912111F9CFDF91F7
S11301C0CF9108950E9453000E945D0080E091E069
S11301D00E94CC00E1E8F0E080818D60808389E0BA
S11301E09DE39093890080938800EFE6F0E080819E
S11301F08260808378941092850010928400CAE70C
S1130200D0E00F2EF8E7EF2EF12CF02D09E710E0E7
S1130210888180648883888184FFFDCF88818061A0
S11302208883F701808180931001F8018081809197
S11302301001809310016091100170E080E090E063
S11302400E94E10120E030E040E85AE30E946D02A0
S113025020E030E44CE955E40E946D0220E030E0F7
S113026040E251E40E943E010E94B00160931001FB
S1130270809110018C5E80931001CACF0E945201BC
S11302800C9433020E942C0258F00E94250240F084
S113029029F45F3F29F00C941C0251110C9467025D
S11302A00C9422020E94440268F39923B1F355236B
S11302B091F3951B550BBB27AA2762177307840775
S11302C038F09F5F5F4F220F331F441FAA1FA9F30B
S11302D035D00E2E3AF0E0E832D091505040E695F9
S11302E0001CCAF72BD0FE2F29D0660F771F881F5A
S11302F0BB1F261737074807AB07B0E809F0BB0B4D
S1130300802DBF01FF2793585F4F3AF09E3F510560
S113031078F00C941C020C9467025F3FE4F3983E5F
S1130320D4F3869577956795B795F7959F5FC9F749
S1130330880F911D9695879597F90895E1E0660FCA
S1130340771F881FBB1F621773078407BA0720F043
S1130350621B730B840BBA0BEE1F88F7E0950895AC
S11303600E944C0288F09F5798F0B92F9927B751F3
S1130370B0F0E1F0660F771F881F991F1AF0BA9545
S1130380C9F714C0B13091F00E946602B1E008953B
S11303900C946602672F782F8827B85F39F0B93F2D
S11303A0CCF3869577956795B395D9F73EF49095F8
S11303B08095709561957F4F8F4F9F4F0895E89476
S11303C009C097FB3EF490958095709561957F4F99
S11303D08F4F9F4F9923A9F0F92F96E9BB27939547
S11303E0F695879577956795B795F111F8CFFAF457
S11303F0BB0F11F460FF1BC06F5F7F4F8F4F9F4F88
S113040016C0882311F096E911C0772321F09EE8E5
S1130410872F762F05C0662371F096E8862F70E04B
S113042060E02AF09A95660F771F881FDAF7880F25
S11304309695879597F9089597F99F6780E870E0F6
S113044060E008959FEF80EC089500240A94161646
S1130450170618060906089500240A9412161306AE
S1130460140605060895092E0394000C11F488233C
S113047052F0BB0F40F4BF2B11F460FF04C06F5F58
S11304807F4F8F4F9F4F089557FD9058440F551F2E
S113049059F05F3F71F04795880F97FB991F61F002
S11304A09F3F79F087950895121613061406551F79
S11304B0F2CF4695F1DF08C0161617061806991FE5
S11304C0F1CF86957105610508940895E894BB27DA
S11304D066277727CB0197F908950E9480020C9430
S11304E033020E94250238F00E942C0220F095234A
S11304F011F00C941C020C94220211240C94670237
S11305000E94440270F3959FC1F3950F50E0551F6C
S1130510629FF001729FBB27F00DB11D639FAA2754
S1130520F00DB11DAA1F649F6627B00DA11D661FA3
S1130530829F2227B00DA11D621F739FB00DA11DC4
S1130540621F839FA00D611D221F749F3327A00D7E
S1130550611D231F849F600D211D822F762F6A2F1A
S113056011249F5750409AF0F1F088234AF0EE0F7F
S1130570FF1FBB1F661F771F881F91505040A9F7AC
S11305809E3F510580F00C941C020C9467025F3F5F
S1130590E4F3983ED4F3869577956795B795F795E8
S11305A0E7959F5FC1F7FE2B880F911D9695879560
S10B05B097F90895F894FFCFB8
S11105B8436F6E6E6563746564210D0A000066
S9030000FC
