S0130000444132435F5461736B33412E73726563B1
S11300000C9434000C9446000C9446000C94460066
S11300100C9446000C9446000C9446000C94460044
S11300200C9446000C9446000C9446000C94460034
S11300300C9446000C9446000C945B000C9446000F
S11300400C9446000C9446000C9446000C94460014
S11300500C9446000C9446000C9446000C94460004
S11300600C9446000C94460011241FBECFEFD8E038
S1130070DEBFCDBF21E0A0E0B1E001C01D92A230FF
S1130080B207E1F70E9448000C9494000C9400001D
S1130090229A84B5826084BD85B5856085BD16BC11
S11300A088EC87BD109200011092010182E08093D8
S11300B06E007894FFCF1F920F920FB60F92112407
S11300C08F9380910101811115C02A9880910001BC
S11300D0823239F410920001809101018F5F809384
S11300E00101809100018F5F8093000188EC87BD3E
S11300F016BC14C02A9A80910001813239F41092FE
S113010000018091010181508093010180910001DF
S11301108F5F809300018EE887BD16BC8F910F908E
S10F01200FBE0F901F901895F894FFCFAD
S9030000FC
