S0120000444134425F5461736B322E73726563F3
S11300000C9434000C9451000C9451000C94510045
S11300100C9451000C9451000C9451000C94510018
S11300200C9451000C9451000C9451000C94510008
S11300300C9451000C9451000C9451000C945100F8
S11300400C9451000C9451000C9451000C945100E8
S11300500C9451000C9451000C9451000C945100D8
S11300600C9451000C94510011241FBECFEFD8E022
S1130070DEBFCDBF11E0A0E0B1E0E2E5F2E002C0F6
S113008005900D92A230B107D9F721E0A2E0B1E0CA
S113009001C01D92A330B207E1F70E947C000C94CA
S11300A027010C94000080E480937C0085E8809311
S11300B07A0008951092C50087E68093C40086E014
S11300C08093C20088E18093C1000895CF93DF93A9
S11300D0FC012081222369F0DC011196E0ECF0E0C0
S11300E0C6ECD0E0908195FFFDCF28832D9121119E
S11300F0F9CFDF91CF910895CF93DF93CDB7DEB7DA
S113010064970FB6F894DEBF0FBECDBF8FEF84B9EE
S1130110E0E8F0E08081826A8083E1E8F0E08081B9
S11301208B61808387E893E19093870080938600B6
S1130130ECE6F0E0808182608083E8E6F0E0808194
S11301408260808378940E945A000E9453000AE7D8
S113015010E00F2EF8E7CF2ED12CF02D0F2EF8E85B
S1130160EF2EF12CF02DF801808180648083F8015A
S1130170808184FFFCCF808180618083F60180814F
S11301809181809302018091020190E08F599F4FE9
S1130190F70191838083809102014AE050E0BE011F
S11301A06F5F7F4F90E00E94E700CE0101960E94AE
S11301B0660080E091E00E946600FFEF23ED80E39B
S11301C0F15020408040E1F700C00000CCCF453220
S11301D0510520F4423010F00C94F200FB0110821F
S11301E0CB010895BB274A3031F4992322F4BDE2B0
S11301F0909581959F4F0C94FE00BB27FB015527DA
S1130200AA27880F991FAA1FA41710F0A41B83956F
S11302105051B9F7A05DAA3308F0A95DA1930097E6
S113022079F7B111B1931192CB010C941701DC0150
S1130230FC01672F71917723E1F7329704C07C9119
S11302406D9370836291AE17BF07C8F30895F89455
S1050250FFCFDA
S10502520A009C
S9030000FC
