:100000000C9434000C9451000C9451000C94510049
:100010000C9451000C9451000C9451000C9451001C
:100020000C9451000C9451000C9451000C9451000C
:100030000C9451000C9451000C9451000C945100FC
:100040000C9491000C9451000C9451000C945100AC
:100050000C9451000C9451000C9451000C945100DC
:100060000C9451000C94510011241FBECFEFD8E026
:10007000DEBFCDBF11E0A0E0B1E0ECE0F4E002C0F3
:1000800005900D92AC31B107D9F721E0ACE1B1E0B8
:1000900001C01D92A533B207E1F70E947C000C94C9
:1000A00004020C9400001092C50087E68093C400FF
:1000B00086E08093C20088E18093C1000895CF93C9
:1000C000DF93FC012081222369F0DC011196E0EC32
:1000D000F0E0C6ECD0E0908195FFFDCF28832D9114
:1000E0002111F9CFDF91CF91089583E480937C00B3
:1000F00085E880937A0008950E9475000E9453005D
:1001000014BC85B5856085BD109233011092340111
:10011000EEE6F0E0808181608083789482E886BD9D
:10012000FFCF1F920F920FB60F9211242F933F9380
:100130004F935F936F937F938F939F93AF93BF93EF
:10014000EF93FF9380913401811111C080913301AD
:100150008D3729F41092330181E08093340180912E
:1001600033018F5F8093330182E886BD48C00E94CF
:100170005C0180931E0184E091E00E945F00809109
:100180001E014AE06FE171E090E00E946C018FE196
:1001900091E00E945F008EE091E00E945F000E946B
:1001A0005C0180931E0180911E014AE06FE171E0C5
:1001B00090E00E946C0180E191E00E945F008FE17D
:1001C00091E00E945F008AE191E00E945F000E943E
:1001D0005C0180931E0180911E014AE06FE171E095
:1001E00090E00E946C018FE191E00E945F008EE040
:1001F00091E00E945F001092340182E886BDFF9179
:10020000EF91BF91AF919F918F917F916F915F918E
:100210004F913F912F910F900FBE0F901F90189507
:100220008F929F92AF92BF92CF92DF92EF92FF9206
:10023000CF93DF93EC01688179818A819B8161157D
:1002400071058105910521F464E279ED8BE597E074
:100250002DE133EF41E050E00E94A10149015A0134
:100260009B01AC01A7EAB1E40E94C0016B017C01D3
:10027000ACEEB4EFA50194010E94CE01DC01CB01EC
:100280008C0D9D1DAE1DBF1DB7FF03C00197A109B9
:10029000B04888839983AA83BB839F77DF91CF91EE
:1002A000FF90EF90DF90CF90BF90AF909F908F9096
:1002B00008950E941001089580E091E00E941001CD
:1002C0000895A0E0B0E08093000190930101A09315
:1002D0000201B09303010895BB274A3031F49923FA
:1002E00022F4BDE2909581959F4F0C947801BB2735
:1002F000FB015527AA27880F991FAA1FA41710F0E2
:10030000A41B83955051B9F7A05DAA3308F0A95DED
:10031000A193009779F7B111B1931192CB010C948D
:100320009101DC01FC01672F71917723E1F732978E
:1003300004C07C916D9370836291AE17BF07C8F3C0
:100340000895052E97FB1EF400940E94B80157FDF6
:1003500007D00E94D30107FC03D04EF40C94B801DF
:1003600050954095309521953F4F4F4F5F4F0895E1
:1003700090958095709561957F4F8F4F9F4F089511
:100380000E94F501A59F900DB49F900DA49F800D34
:10039000911D11240895B7FF0C94C0010E94C00163
:1003A000821B930B0895A1E21A2EAA1BBB1BFD0111
:1003B0000DC0AA1FBB1FEE1FFF1FA217B307E40744
:1003C000F50720F0A21BB30BE40BF50B661F771F9C
:1003D000881F991F1A9469F760957095809590957C
:1003E0009B01AC01BD01CF010895A29FB001B39F55
:1003F000C001A39F700D811D1124911DB29F700D2E
:0C040000811D1124911D0895F894FFCF78
:10040C0001000000496E74656765723A20000A00AD
:0C041C00466C6F617420203A20002E0016
:00000001FF
