:100000000C9434000C943E000C943E000C943E0082
:100010000C943E000C943E000C943E000C943E0068
:100020000C943E000C943E000C943E000C943E0058
:100030000C943E000C943E000C943E000C943E0048
:100040000C943E000C943E000C943E000C943E0038
:100050000C943E000C943E000C943E000C943E0028
:100060000C943E000C943E0011241FBECFEFD8E04C
:10007000DEBFCDBF0E9440000C9457000C940000DE
:10008000229A87B117B8419A14BC85B5856085BDA1
:1000900026E491E0319909C08AE62A9826BDA89BFA
:1000A000FECF95BB8150C9F7F5CF2A9AF3CFF894CC
:0200B000FFCF80
:00000001FF
