:100000000C9434000C9451000C9451000C94510049
:100010000C9451000C9451000C9451000C9451001C
:100020000C9451000C9451000C9451000C9451000C
:100030000C9451000C94FD000C9451000C94510050
:100040000C9451000C9451000C9451000C945100EC
:100050000C9451000C9451000C9451000C945100DC
:100060000C9451000C94510011241FBECFEFD8E026
:10007000DEBFCDBF11E0A0E0B1E0E0EDF2E002C0F4
:1000800005900D92A230B107D9F721E0A2E0B1E0CE
:1000900001C01D92A430B207E1F70E947C000C94CD
:1000A00066010C94000080E480937C0085E88093D6
:1000B0007A0008951092C50087E68093C40086E018
:1000C0008093C20088E18093C1000895CF93DF93AD
:1000D000FC012081222369F0DC011196E0ECF0E0C4
:1000E000C6ECD0E0908195FFFDCF28832D912111A2
:1000F000F9CFDF91CF910895CF93DF93CDB7DEB7DE
:1001000064970FB6F894DEBF0FBECDBF8FEF84B9F2
:10011000E1E8F0E080818D61808387E893E190934E
:10012000870080938600EEE6F0E080818160808326
:10013000ECE6F0E0808182608083E8E6F0E0808198
:100140008260808378940E945A000E9453000AE7DC
:1001500010E00F2EF8E7EF2EF12CF02D0F2EF6E821
:10016000CF2ED12CF02D0F2EF0E5AF2EF3ECBF2EBD
:10017000F02D0F2EF8EC9F2EF02DF8018081806479
:100180008083F801808184FFFCCF8081806180833F
:10019000F70180819181809303018091030188237D
:1001A00049F080910301989EC0011124F6019183CA
:1001B000808307C080910301823E18F0F601B1826E
:1001C000A082809103014AE050E0BE016F5F7F4F43
:1001D00090E00E942601CE0101960E94660080E018
:1001E00091E00E946600FFEF23ED80E3F150204094
:1001F0008040E1F700C00000C0CF1F920F920FB601
:100200000F9211248F9380910201813361F018F4D1
:10021000803331F010C0823349F0833351F00BC08A
:1002200089E085B908C088E085B905C08CE085B94A
:1002300002C084E085B9809102018F5F8093020142
:100240008F910F900FBE0F901F901895453251055A
:1002500020F4423010F00C943101FB011082CB01EC
:100260000895BB274A3031F4992322F4BDE29095DA
:1002700081959F4F0C943D01BB27FB015527AA2771
:10028000880F991FAA1FA41710F0A41B8395505123
:10029000B9F7A05DAA3308F0A95DA193009779F79B
:1002A000B111B1931192CB010C945601DC01FC0108
:1002B000672F71917723E1F7329704C07C916D939A
:1002C00070836291AE17BF07C8F30895F894FFCF0B
:0202D0000A0022
:00000001FF
