S00E0000444132425F432E737265637B
S11300000C9434000C944A000C943E000C943E0072
S11300100C943E000C943E000C943E000C943E0064
S11300200C943E000C943E000C943E000C943E0054
S11300300C943E000C943E000C943E000C943E0044
S11300400C943E000C943E000C943E000C943E0034
S11300500C943E000C943E000C943E000C943E0024
S11300600C943E000C943E0011241FBECFEFD8E048
S1130070DEBFCDBF0E9440000C9465000C940000CC
S1130080229A5A9A82E08093690081E08DBB789429
S11300902A9AFECF1F920F920FB60F9211242F931C
S11300A08F939F9385B115B82FEF88E09DE321507E
S11300B080409040E1F700C000009F918F912F9104
S11100C00F900FBE0F901F901895F894FFCF6D
S9030000FC
