S0130000444132435F5461736B32412E73726563B2
S11300000C9434000C9446000C9446000C94460066
S11300100C9446000C9446000C9446000C94460044
S11300200C9446000C9446000C9446000C94460034
S11300300C9446000C9446000C9446000C94460024
S11300400C945A000C9446000C9446000C94460000
S11300500C9446000C9446000C9446000C94460004
S11300600C9446000C94460011241FBECFEFD8E038
S1130070DEBFCDBF21E0A0E0B1E001C01D92A230FF
S1130080B207E1F70E9448000C9491000C94000020
S1130090229A14BC85B5856085BD88E386BD10921F
S11300A0000110920101EEE6F0E08081816080831E
S11300B07894FFCF1F920F920FB60F9211248F9353
S11300C080910101811114C02A988091000182322B
S11300D039F410920001809101018F5F8093010136
S11300E0809100018F5F8093000188E386BD13C077
S11300F02A9A80910001813239F410920001809192
S11301000101815080930101809100018F5F8093F0
S1130110000182E786BD8F910F900FBE0F901F9054
S10901201895F894FFCFCE
S9030000FC
